:10200000008000204D2400004524000045240000ED
:1020100000000000000000000000000000000000C0
:102020000000000000000000000000004524000047
:10203000000000000000000045240000D124000042
:1020400045240000452400004524000045240000EC
:10205000452400004524000045240000E924000038
:1020600045240000452400004524000045240000CC
:1020700045240000452400006123000045240000A1
:1020800045240000452400004524000045240000AC
:102090000000000045240000452400004524000005
:1020A000452400004524000045240000452400008C
:1020B0000000000010B5064C2378002B07D1054B1B
:1020C000002B02D0044800E000BF0123237010BDA4
:1020D000A000002000000000447A0000044B10B56E
:1020E000002B03D00349044800E000BF10BDC046E8
:1020F00000000000A4000020447A000090B585B0E4
:1021000000AF0200FB1D1A70FB1D1B78274AD35C31
:102110000F22BC18180000F0EFFE03002370FB1D17
:102120001B78234AD35C002B07D10F217B181B7827
:102130005A425341DAB27B181A70FB1D1B781D4AB4
:10214000D35C012B13D002DC002B05D029E0022B3D
:1021500013D0032B1CD024E00F23FB181B78012B7A
:102160001CD1FB1D1B78134A0121D15416E0FB1D25
:102170001B78104A0221D15413E00F23FB181B785F
:10218000002B0DD1FB1D1B780A4A0321D15407E017
:10219000FB1D1B78074A0021D15402E0C04600E035
:1021A000C046C046BD4605B090BDC04600000020F8
:1021B000C4000020C000002080B500AF0020FFF761
:1021C0009DFF054B1B78032B01D1012300E0002369
:1021D0001800BD4680BDC046C000002080B500AFDD
:1021E0000120FFF78BFF054B5B78032B01D1012307
:1021F00000E000231800BD4680BDC046C00000209E
:1022000080B582B000AF0200FB1D1A70FB1D1B7869
:102210000A4AD35C0121180000F0F4FD322000F0DE
:10222000D3F9FB1D1B78054AD35C0021180000F090
:10223000E9FDC046BD4602B080BDC0460400002096
:1022400080B500AF0020FFF7DBFFC046BD4680BD74
:1022500080B500AF0120FFF7D3FFC046BD4680BD6B
:1022600080B500AF1D4B1B78042B34D89A001C4B53
:10227000D3181B689F46FFF79FFF031E02D0174B22
:1022800003221A70FFF7AAFF031E1FD0134B01226F
:102290001A701BE0FFF7A2FF031E19D00F4B02229A
:1022A0001A7015E0FFF79AFF031E13D00B4B0422A0
:1022B0001A700FE0FFF7C4FF084B04221A700AE0FF
:1022C000FFF7C6FF054B00221A7004E0C04602E08B
:1022D000C04600E0C046C046BD4680BDBC000020F0
:1022E000C474000080B582B000AF00237B607B68BF
:1022F000012B0BDC144A7B68D3181B7802211800D1
:1023000000F040FC7B6801337B60F0E700233B601A
:102310003B68012B13DC0D4A3B68D3181B78012165
:10232000180000F02FFC094A3B68D3181B780021E5
:10233000180000F067FD3B6801333B60E8E7C046EA
:10234000BD4602B080BDC046000000200400002051
:1023500080B500AFFFF784FFC046BD4680BD0000DA
:1023600080B500AF034B180001F00AFDC046BD4622
:1023700080BDC046E000002080B584B002AF786028
:1023800039607B68012B31D13B681A4A93422DD1C9
:10239000194A1A4B1100180001F016F8184A194B87
:1023A0001100180001F010F8174A184B110018001E
:1023B00001F00AF8164A174B1100180001F004F852
:1023C000154A164B1100180000F0FEFF144A154B79
:1023D0001100180000F0F8FF12491348012301937F
:1023E000032300930E230D2201F024FBC046BD46BB
:1023F00002B080BDFFFF000000080042C8000020BE
:10240000000C0042CC00002000100042D000002050
:1024100000140042D400002000180042D800002020
:10242000001C0042DC000020E000002080B500AF6E
:10243000034B19000120FFF79FFFBD4680BDC0463A
:10244000FFFF000080B500AFFEE7000080B582B05E
:1024500000AF1A4B7B601A4B3B60194A194B9A42EA
:1024600012D07A683B689A420ED009E07B681A68FD
:102470003B681A603B6804333B607B6804337B60D5
:102480003A68104B9A42F1D30D4A0E4B9A4210D043
:102490007A683B689A420CD00B4B3B6005E03B6886
:1024A00000221A603B6804333B603A68074B9A424B
:1024B000F5D300F0D7F801F04DFFFEE7C07A000039
:1024C00000000020A0000020A0000020E007002065
:1024D00080B500AF00F0BFF8031E02D100F0A8F8ED
:1024E00000E0C046BD4680BD80B500AF044B1B6810
:1024F000002B02D0024B1B689847C046BD4680BDEA
:10250000A401002080B582B000AF7860034B7A68E8
:102510001A60C046BD4602B080BDC046A40100207E
:1025200080B586B000AF254B9B687B61244B5A6811
:102530008023DB0413405A1E9341DBB23B61214BE5
:102540001B68FB607B69BB603B697B60FB683B6031
:102550001A4B9B687B611A4B5A688023DB0413403B
:102560005A1E9341DBB23B61164B1B68FB607A68D5
:102570003B699A42E6D13A68FB689A42E2D1BA686E
:102580007B699A42DED33A687B68D21813005B01FC
:102590009B1A9B009B18DB001900084B5A68BB680C
:1025A000D21A13009B009B181A019B181A029B1841
:1025B0001B0DCB181800BD4606B080BD10E000E032
:1025C00000ED00E0A801002080B584B000AF786085
:1025D0007B68002B1FD0FFF7A3FF0300FB6016E012
:1025E00000F034F808E07B68013B7B60FB68FA226E
:1025F000920094466344FB607B68002B07D0FFF792
:102600008FFF0200FB68D31A054A9342EBD87B6820
:10261000002BE5D100E0C046BD4604B080BDC046F9
:10262000E703000080B500AFC046BD4680BD000096
:1026300080B500AF044B1B685A1C034B1A6000F0B6
:1026400025FEC046BD4680BDA801002080B500AF74
:10265000C046BD4680BD80B500AF00231800BD4612
:1026600080BD000080B582B000AF754A53681E215E
:102670008B4302210B435360724B9A69714B0821C3
:102680000A439A61704B714A9A826F4A938A022177
:102690000B439382C0466C4BDB6802221340FAD096
:1026A0006B4B01221A70C046694B1B78DBB21A00D3
:1026B0000123134005D0664B5B78DBB25BB2002B85
:1026C000F2DB634B01229A60C046614B5B78DBB260
:1026D0005BB2002BF9DB5E4B5E4A5A60C0465C4B36
:1026E0005B78DBB25BB2002BF9DB594B8222D20163
:1026F0005A80C046564B5B78DBB25BB2002BF9DBED
:10270000514B02229A84C0464F4BDB681022134083
:10271000FAD04D4B504ADA62C0464B4BDB68102270
:102720001340FAD0484B9B8C9BB2474A4B490B4312
:102730009BB29384C046444BDB6810221340FAD00E
:10274000414B9B8C9BB2404A02210B439BB293842A
:10275000C0463D4BDB6880221340FAD03A4BDB6821
:1027600040221340F5D0C046374BDB68102213409F
:10277000FAD0374B00229A60C046354B5B78DBB20B
:102780005BB2002BF9DB324B354A5A60C046304B06
:102790005B78DBB25BB2002BF9DB2B4A136A314961
:1027A0000B401362284A136A80218B431362284B23
:1027B00003229A60264B2C4A5A60C046244B5B7811
:1027C000DBB25BB2002BF9DB1E4B00221A721D4BF1
:1027D00000225A721B4B00229A721A4B0022DA72A4
:1027E000224B234A1A60234B1B68DB080722134045
:1027F0007B60214B1B68DB0E3B601E4B1B685B0143
:10280000FF2213403A6813433B607B689BB21B0274
:102810009AB2E023DB0013409AB23B689BB2FF21DF
:102820000B409BB2154913439BB20B85044A536876
:1028300080210B435360C046BD4602B080BDC046F8
:102840000040004100040040000800400C06000069
:10285000000C004001050100B905FF7D040A0000DD
:1028600000070300FFFCFFFF030601000800002033
:10287000006CDC0224608000206080000040004288
:1028800090B583B000AF02003960FB1D1A70FB1DCC
:102890001B787F2B32D92F4AFB1D1B7819000F2381
:1028A0000B40083B9B0806339B00D31804331B687E
:1028B000FA1D1278110003220A40D200FF21914034
:1028C0000A00D2431A4011003B689B01FF221A40C4
:1028D000FB1D1B78180003230340DB009A401D48B2
:1028E000FB1D1B781C000F232340083B9B080A4359
:1028F00006339B00C31804331A6027E0164AFB1DF9
:102900001B785BB29B08C0339B009B58FA1D127862
:10291000110003220A40D200FF2191400A00D24355
:102920001A4011003B689B01FF221A40FB1D1B78D7
:10293000180003230340DB009A400748FB1D1B7867
:102940005BB29B080A43C0339B001A50C046BD4689
:1029500003B090BD00ED00E000E100E080B582B082
:1029600000AF78607B68013B0C4A934201D9012398
:1029700010E00B4B7A68013A5A6001235B42032155
:102980001800FFF77DFF064B00229A60044B0722D8
:102990001A6000231800BD4602B080BDFFFFFF0093
:1029A00010E000E080B582B000AF3D4B1A68FA231A
:1029B0009900100004F0D2FB03001800FFF7CEFFCF
:1029C000031E00D0FEE701235B4202211800FFF73F
:1029D00057FF344B1A6A334BFC210A431A62314BBE
:1029E0001A6A304BFC2189010A431A622D4B1A6A7C
:1029F0002C4BA021C9020A431A6200237B6008E025
:102A00007B68DBB20021180000F0BCF87B68013362
:102A10007B607B68152BF3D9C046234B5B78DBB218
:102A20005BB2002BF9DB204B204A5A80C046204B7A
:102A30005B7E1B06DB0FDBB2012BF8D01C4BE422C4
:102A4000D2009A801A4B3F22DA70C046184B5B7E48
:102A50001B06DB0FDBB2012BF8D0154BC022520155
:102A60001A61134B00229A70002000F027F8C0462C
:102A70000D4B5B78DBB25BB2002BF9DB0A4B0D4AE6
:102A80005A80C0460C4BDB791B06DB0FDBB2012BF7
:102A9000F8D0094B41225A70C046BD4602B080BDF5
:102AA0000800002000040040000C00401E40000010
:102AB00000400042214000000048004280B582B042
:102AC00000AF0200FB1D1A702B4B5B7E1B06DB0F59
:102AD000DBB2012BF8D0FB1D1B78052B39D89A00EF
:102AE000264BD3181B689F46234A136924490B4081
:102AF0001361214A53780F218B43191C01230B4387
:102B0000537035E01C4A13691D490B4013611A4A82
:102B100053780F218B43191C03230B43537027E079
:102B2000154A136916490B401361134A53780F2154
:102B30008B4353701CE0104A136911490B40136119
:102B40000D4A53780F218B43191C02230B435370FA
:102B50000EE0094A1369F02109050B431361064A87
:102B600053780F218B43191C02230B435370C0462B
:102B7000C046BD4602B080BD00400042387800002B
:102B8000FFFFFFF090B583B000AF0200FB1D1A708D
:102B9000BB1D0A1C1A70FB1D1A78984913005B00B4
:102BA0009B18DB00CB1808331B785BB2013300D1D4
:102BB00020E1BB1D1B78012B00D1E4E002DC002BDF
:102BC00006D018E1022B3AD0032B00D189E012E1A4
:102BD0008B48FB1D1A78894913005B009B18DB00AA
:102BE0005B561C00FB1D1A78844913005B009B1880
:102BF000DB00CB1804331B684021E2018218D31894
:102C00005B1802221A70FB1D1A787C4913005B00C6
:102C10009B18DB00CB1804331B6801229A40140078
:102C20007748FB1D1A78754913005B009B18DB0081
:102C30005B562200DB01C31804331A60DBE07048E6
:102C4000FB1D1A786D4913005B009B18DB005B5677
:102C50001C00FB1D1A78694913005B009B18DB0000
:102C6000CB1804331B684021E2018218D3185B188B
:102C700006221A70FB1D1A78604913005B009B182E
:102C8000DB00CB1804331B6801229A4014005C4817
:102C9000FB1D1A78594913005B009B18DB005B563B
:102CA0002200DB01C31804331A60FB1D1A78534954
:102CB00013005B009B18DB00CB1804331B68012258
:102CC0009A4014004E48FB1D1A784C4913005B00D3
:102CD0009B18DB005B562200DB01C31818331A6017
:102CE00089E04748FB1D1A78444913005B009B1894
:102CF000DB005B561C00FB1D1A78404913005B008B
:102D00009B18DB00CB1804331B684021E2018218BA
:102D1000D3185B1806221A70FB1D1A783749130066
:102D20005B009B18DB00CB1804331B6801229A4020
:102D300014003348FB1D1A78304913005B009B18C0
:102D4000DB005B562200DB01C31804331A60FB1D55
:102D50001A782A4913005B009B18DB00CB18043358
:102D60001B6801229A4014002548FB1D1A7823494C
:102D700013005B009B18DB005B562200DB01C318CD
:102D800014331A6037E01E48FB1D1A781B491300E4
:102D90005B009B18DB005B561C00FB1D1A78174973
:102DA00013005B009B18DB00CB1804331B68402129
:102DB000E2018218D3185B1802221A70FB1D1A78E0
:102DC0000E4913005B009B18DB00CB1804331B6813
:102DD00001229A4014000A48FB1D1A780749130083
:102DE0005B009B18DB005B562200DB01C318083335
:102DF0001A6000E0C046BD4603B090BDD874000024
:102E00000044004190B587B000AF0200FB1D1A706E
:102E1000BB1D0A1C1A70FB1D1A78354913005B0094
:102E20009B18DB00CB1808331B785BB201335BD0F7
:102E3000FB1D1A78172439192D4813005B009B18C5
:102E4000DB001B5C0B70FB1D1A78294913005B002B
:102E50009B18DB00CB1804331B683B6101223B69E4
:102E60009A401300FB60234A3B191B785BB2DB01DD
:102E7000D31808331B68FA68134019D11D4C172367
:102E8000FB181B785BB2BA1D1278511E8A41D1B271
:102E90004020DB01E2183B69D3181A18137801208F
:102EA0000140880004218B43191C031C0B43137041
:102EB000BB1D1B78002B0AD10E4A1723FB181B7869
:102EC0005BB2DB01D3181433FA681A600AE0094ACE
:102ED0001723FB181B785BB2DB01D3181833FA6891
:102EE0001A60C046C04600E0C046BD4607B090BD6F
:102EF000D87400000044004180B582B000AF0200E9
:102F0000FB1D1A70FB1D1A78174913005B009B18F4
:102F1000DB00CB1808331B785BB2013301D10023EF
:102F20001EE01248FB1D1A780F4913005B009B1826
:102F3000DB005B56DB01C31820331968FB1D1A78D0
:102F4000094813005B009B18DB00C31804331B689F
:102F5000D9400B000122134001D0012300E00023DF
:102F60001800BD4602B080BDD87400000044004186
:102F7000F0B585B000AF78600A00FB1C1A70A2495A
:102F80007A6813005B009B18DB00CB1808331B78B2
:102F90005BB2013302D101235B4230E1FB1C1B78A1
:102FA0005BB201330C2B00D928E19A00974BD31860
:102FB0001B689F46FB1C1B785BB2092B06D17B6804
:102FC000DBB200211800FFF7DDFD16E1FB1C1B78CA
:102FD0005BB20A2B06D17B68DBB202211800FFF737
:102FE000D1FD0AE1FB1C1B785BB20B2B00D004E186
:102FF0007B68DBB201211800FFF7C4FDFDE08249C8
:103000007A6813005B009B18DB00CB1804331B6845
:103010000122134076D07E487B497A6813005B001A
:103020009B18DB005B561C0077497A6813005B0035
:103030009B18DB00CB1804331B685B083021E201CE
:103040008218D3185B181B78DBB21A000F231340C9
:10305000BB60FB1C1B781B01D8B2BB68D9B26C4D9E
:10306000694C7A6813005B009B18DB001B571E003D
:10307000654C7A6813005B009B18DB00E31804338F
:103080001B685B0802000A43D0B23021F201AA1883
:10309000D3185B18021C1A705D485B497A681300EC
:1030A0005B009B18DB005B561C0057497A681300D5
:1030B0005B009B18DB00CB1804331B684021E20146
:1030C0008218D3185B181B78D9B2514C4E487A68D5
:1030D00013005B009B18DB001B561D004A487A68F2
:1030E00013005B009B18DB00C31804331B6801222C
:1030F0000A43D0B24021EA01A218D3185B18021C7F
:103100001A707BE0424840497A6813005B009B18C4
:10311000DB005B561C003C497A6813005B009B187F
:10312000DB00CB1804331B685B083021E2018218F6
:10313000D3185B181B78DBB21A00F0231340FB6036
:10314000FB1C1B780F221340D8B2FB68D9B2304D5C
:103150002D4C7A6813005B009B18DB001B571E0088
:10316000294C7A6813005B009B18DB00E3180433DA
:103170001B685B0802000A43D0B23021F201AA1892
:10318000D3185B18021C1A7021481F497A68130073
:103190005B009B18DB005B561C001B497A68130020
:1031A0005B009B18DB00CB1804331B684021E20155
:1031B0008218D3185B181B78D9B2154C12487A685C
:1031C00013005B009B18DB001B561D000E487A683D
:1031D00013005B009B18DB00C31804331B6801223B
:1031E0000A43D0B24021EA01A218D3185B18021C8E
:1031F0001A7003E001235B4201E0C046002318007F
:10320000BD4605B0F0BDC046D8740000507800003F
:103210000044004180B500AFBFF34F8F034B044A19
:10322000DA60BFF34F8FC046FDE7C04600ED00E017
:103230000400FA0580B500AF054B1B7DDBB21A0018
:10324000012313405A1E9341DBB21800BD4680BDD6
:103250000040004180B582B000AF7860FFF7E2F92E
:10326000034B7A681A60C046BD4602B080BDC046B6
:103270000C00002080B500AF034B012252421A60BF
:10328000C046BD4680BDC0460C00002080B500AFE2
:10329000094B1B6801330BD0074B1B685A1E064BAA
:1032A0001A60054B1B68002B03D1044B984700E0C4
:1032B000C046BD4680BDC0460C000020497A0000D3
:1032C00080B582B000AF0200FB1D1A70FB1D1B7899
:1032D0005BB21F221A40044B012191400A001A6080
:1032E000C046BD4602B080BD00E100E090B583B0AD
:1032F00000AF02003960FB1D1A70FB1D1B787F2B8D
:1033000032D92F4AFB1D1B785BB20F210B40083BC3
:103310009B0806339B00D31804331B68FA1D1278F0
:1033200052B203210A40D200FF2191400A00D24349
:103330001A4011003B689B01FF221A40FB1D1B78BD
:103340005BB203200340DB009A401D48FB1D1B7845
:103350005BB20F242340083B9B080A4306339B00C3
:10336000C31804331A6027E0164AFB1D1B785BB2B2
:103370009B08C0339B009B58FA1D127852B2032160
:103380000A40D200FF2191400A00D2431A401100A6
:103390003B689B01FF221A40FB1D1B785BB2032098
:1033A0000340DB009A400748FB1D1B785BB29B087B
:1033B0000A43C0339B001A50C046BD4603B090BDBF
:1033C00000ED00E000E100E080B582B000AF786081
:1033D00039607B683A681A607B681800BD4602B0A5
:1033E00080BD0000B0B586B000AFF86008001100E5
:1033F0007B600B243B19021C1A700A257B190A1CDE
:103400001A70FB68180000F0C7F9FB68180000F09C
:10341000CEF820003B181B789B001A001C231A4092
:1034200011007B191B785B031B041A0CFB681B68DB
:103430000A431A60FB681B6884229A753B181B7844
:10344000012B3AD10A23FB181B78012B04D1162338
:10345000FB1810221A8003E01623FB1808221A809A
:10346000184B1B68D8001623FB181B887A68534337
:10347000190003F073FE03003B61FB681A683B69A7
:10348000191C07230B40D9B293894803DB04DB0CDA
:10349000191C031C0B4393813B69D908FB681A680C
:1034A0000B1CDB04DB0C99B29389C904C80C5B0BC1
:1034B0005B03191C031C0B439381C046BD4606B039
:1034C000B0BDC0460800002090B583B000AF786062
:1034D0000C0010001900FB1C221C1A70BB1C021CE3
:1034E0001A707B1C0A1C1A707B681B6819687B1C8D
:1034F0001B78023B5A1E9341DBB21B061A00F023D5
:103500001B051340BA1C127892071A437B681B688C
:103510000A431A607B681B685968FB1C1B780722EA
:1035200013401822BA181278920113437A1C1278A9
:10353000022A03D07A1C1278520300E000221A43B8
:103540007B681B680A435A60C046BD4603B090BD05
:1035500080B582B000AF786008001100FB1C021C2F
:103560001A70BB1C0A1C1A707B681B681968FB1C4C
:103570001B781B041A00C0239B021A40BB1C1B783B
:103580001B051800C0239B0303401A437B681B687C
:103590000A431A607B681B685A687B681B68C021F5
:1035A00089020A435A60C046BD4602B080BD80B55C
:1035B00082B000AF78607B681B681A6801210A43FB
:1035C0001A607B681B681B68DB07DB0FDBB2002B14
:1035D00007D17B681B68DB69DB07DB0FDBB2002BE5
:1035E00001D0012300E00023002B00D0E9E7C04612
:1035F000BD4602B080BD80B582B000AF78607B6808
:103600001B681A6802210A431A607B681B68DB6921
:103610009B07DB0FDBB2002B00D0F6E7C046BD46B0
:1036200002B080BD80B582B000AF78607B681B6857
:103630001B7E9B07DB0FDBB201225340DBB2002B6A
:1036400000D0F3E7C046BD4602B080BD80B582B071
:1036500000AF78607B681B6800225A83C046BD4675
:1036600002B080BD80B582B000AF78607B681B6817
:103670001B7E5B07DB0FDBB21800BD4602B080BDCE
:1036800080B582B000AF78607B681B681B7E1B062C
:10369000DB0FDBB21800BD4602B080BD80B582B042
:1036A00000AF78607B681A68137E802149420B4323
:1036B0001376C046BD4602B080BD80B582B000AF73
:1036C00078607B681B685B8B9B07DB0FDBB21800A5
:1036D000BD4602B080BD80B582B000AF78607B6827
:1036E0001A68538B02210B435383C046BD4602B078
:1036F00080BD80B582B000AF78607B681B681B7EA0
:10370000DB07DB0FDBB21800BD4602B080BD80B521
:1037100082B000AF78607B681B681B8DDB05DB0D1A
:103720009BB2DBB21800BD4602B080BD80B582B04E
:1037300000AF78600A00FB1C1A707B681800FFF766
:10374000D8FF03001A0001235340DBB2002B00D046
:10375000F3E77B681B68FA1C127892B21A85012382
:103760001800BD4602B080BD80B582B000AF786061
:103770007B681B6801229A75C046BD4602B080BDB9
:1037800080B582B000AF78607B681B6801221A7533
:10379000C046BD4602B080BD90B585B000AF786030
:1037A0000F23FB1800221A700E23FB18FE221A703A
:1037B0007B681B683F4A934208D10F23FB181422F1
:1037C0001A700E23FB1809221A7044E07B681B68EC
:1037D000394A934208D10F23FB1815221A700E2381
:1037E000FB180A221A7036E07B681B68334A934242
:1037F00008D10F23FB1816221A700E23FB180B2278
:103800001A7028E07B681B682D4A934208D10F2369
:10381000FB1817221A700E23FB180C221A701AE0DC
:103820007B681B68274A934208D10F23FB18182294
:103830001A700E23FB180D221A700CE07B681B68AF
:10384000214A934207D10F23FB1819221A700E2325
:10385000FB180E221A700E23FB181B785BB2023382
:1038600024D00E243B191B785BB21800FFF728FD0B
:103870003B191B785BB203211800FFF737FD0F23BC
:10388000FB181B789BB23F2213409BB20F4980224A
:10389000D20113439BB24B800C4B5B78DBB25BB223
:1038A000DBB2DB09DBB2002B01D0F5E7C046BD4639
:1038B00005B090BD00080042000C0042001000421C
:1038C0000014004200180042001C0042000C00409E
:1038D00080B582B000AF7860054A7B681A607B686B
:1038E00000225A607B681800BD4602B080BDC04609
:1038F0001879000080B582B000AF7860002318000E
:10390000BD4602B080BD80B582B000AF7860C046D1
:10391000BD4602B080BD000080B582B000AF7860C7
:103920007B681800FFF7D4FF054A7B681A607B6844
:10393000FA2292009A607B681800BD4602B080BDF2
:10394000F478000080B582B000AF0200FB1D1A7051
:10395000FB1D1B787F2B18D9174AFB1D1B785BB208
:103960000F210B40083B9B0806339B00D318043300
:103970001A68FB1D1B785BB203210B40DB00DA40A9
:1039800013009B090322134012E00C4AFB1D1B7815
:103990005BB29B08C0339B009A58FB1D1B785BB23F
:1039A00003210B40DB00DA4013009B090322134084
:1039B0001800BD4602B080BD00ED00E000E100E06F
:1039C00080B584B000AF7860EFF31083FB60FA68D5
:1039D0007B681A607B6801225A6072B67B681800A7
:1039E000BD4604B080BD80B582B000AF78607B6812
:1039F0001B68002B02D162B6BFF36F8F7B68180083
:103A0000BD4602B080BD80B582B000AF78607B68F3
:103A10005A68511E7B68596013001800BD4602B0F9
:103A200080BD80B582B000AF786001231800BD462C
:103A300002B080BD90B589B004AFF860B9601900DC
:103A4000FB1D1A70BB1D0A1C1A70BB1D1C78FB1DC8
:103A50001A78B968F868FF230393FF23029324239D
:103A6000FB181B7801932023FB181B78009323007D
:103A700000F026F8FB681800BD4605B090BD0000B8
:103A800080B582B000AF78607B681800FFF744FF14
:103A9000034A7B681A607B681800BD4602B080BD8F
:103AA000C078000080B582B000AF78607B681800F5
:103AB00000F001FB7B681800BD4602B080BD00002D
:103AC00080B584B000AFF860B9601900FB1D1A70B2
:103AD000BB1D0A1C1A70FB681800FFF7D1FF1B4AB8
:103AE000FB681A60FB6814331800FFF7DBFFFB6804
:103AF00060331800FFF7D6FFFB68BA681A61FB68ED
:103B0000FA1DAC2112785A54FB68BA1DAD21127807
:103B10005A54FB681822BA18AE2112785A54FB681E
:103B20001C22BA18AF2112785A54FB682022BA1806
:103B3000B02112785A54FB682422BA18C021127896
:103B40005A54FB681800BD4604B080BD8C78000054
:103B500080B582B000AF786039607B681B68203325
:103B60001B68044A396878689847C046BD4602B069
:103B700080BDC04613040000F0B589B002AFF86004
:103B8000B960BB1D1A80FB68AC229B5C1800FB6807
:103B9000AC229B5C1900604A0B005B005B18DB00E9
:103BA000D31808331B785BB21900FFF7E1F9FB6803
:103BB000AD229B5C1800FB68AD229B5C1900564A45
:103BC0000B005B005B18DB00D31808331B785BB27B
:103BD0001900FFF7CDF9FB68AF229B5C022B18D1CF
:103BE000FB68C0229B5CFF2B13D0FB68C0229B5C50
:103BF0001800FB68C0229B5C1900474A0B005B0061
:103C00005B18DB00D31808331B785BB21900FFF791
:103C1000AFF9FB68B0229B5CFF2B3FD0FB68B02262
:103C20009B5C01211800FEF7ADFFFB68B0229B5C96
:103C3000180017243A19384903005B001B18DB00F1
:103C40005B5C137020003B181B785BB2DB01183300
:103C5000324C1A19FB68B4215A503B181B785BB2DE
:103C6000DB0114331A19FB68B8215A50FB68B022E3
:103C70009B5C1900284A0B005B005B18DB00D31823
:103C800004331B6801229A40FB68BC215A50FB6830
:103C9000B8229B58FA68BC2152581A60FB68186910
:103CA000BB6801220121FFF79DFBFB681C69BB1D5E
:103CB0001A88FB681100180000F0C2F903001D000B
:103CC000BB1D1A88FB681100180000F0DCF9030026
:103CD0001E00BB1D1A88FB681100180000F09CF93B
:103CE000030000933300012229002000FFF7ECFBC2
:103CF000FB681869FB68AF22995CFB68AE229B5C8D
:103D00001A00FFF725FCFB681B691800FFF773FC1E
:103D1000C046BD4607B0F0BDD87400000044004165
:103D200080B582B000AF78607B681B691800FFF730
:103D30003EFC7B681433180000F0D0F97B686033D8
:103D4000180000F0CBF9C046BD4602B080BD80B57A
:103D500082B000AF78607B686033180000F0CFF964
:103D600003005A1E9341DBB2002B00D0F3E77B68BF
:103D70001B691800FFF756FCC046BD4602B080BD67
:103D800090B585B000AF78607B681B691800FFF7BD
:103D900094FC031E09D07B681B691800FFF7B7FC71
:103DA0007B681B691800FFF796FC7B681B6918008D
:103DB000FFF758FC031E27D07B6814331C007B6878
:103DC0001B691800FFF7A3FC03001900200000F096
:103DD000A0F97B68B0229B5CFF2B15D07B68143365
:103DE000180000F0BEF902000923D00FD917934242
:103DF00048410300DBB2002B06D07B68B4229B58FD
:103E00007A68BC2152581A607B681B691800FFF75A
:103E100070FC031E21D07B686033180000F06FF93E
:103E200003005A1E9341DBB2002B11D07B68603334
:103E3000180000F0A2F902000F217B181A707B68AD
:103E40001A697B181B7819001000FFF76FFC04E05B
:103E50007B681B691800FFF793FC7B681B691800DF
:103E6000FFF70EFC031E09D07B681B691800FFF7E3
:103E700015FC7B681B691800FFF7E8FBC046BD46D0
:103E800005B090BD80B582B000AF78607B68143318
:103E9000180000F034F903001800BD4602B080BDE0
:103EA00080B582B000AF78607B686033180000F0A6
:103EB00058F903001800BD4602B080BD80B582B03D
:103EC00000AF78607B681433180000F07FF90300BE
:103ED0001800BD4602B080BD80B584B000AF7860E8
:103EE0007B681433180000F048F90300FB607B681E
:103EF000B0229B5CFF2B14D07B681433180000F0B9
:103F000030F9030001220A2B01DC00231A1CD3B272
:103F1000002B06D07B68B8229B587A68BC21525887
:103F20001A60FB681800BD4604B080BD80B586B03D
:103F300000AF78600A00FB1C1A707B681B691800D0
:103F4000FFF7D7FB031E08D07B686033180000F032
:103F5000D6F8031E01D1012300E00023002B08D076
:103F60007B681A69FB1C1B7819001000FFF7DEFB49
:103F70004AE07B686033180000F03DF9031E35D03D
:103F8000EFF31083FB60FB68012213405A42534158
:103F9000DAB217217B181A707B181B78002B17D008
:103FA0001C4B5B68DB05DB0D3B613B69002B0AD0DA
:103FB0003B69DBB2103BDBB25BB21800FFF7C2FC1F
:103FC0000300032B01D9012300E00023002B0BD1B8
:103FD0007B681B691800FFF78CFB031EC9D07B6848
:103FE0001800FFF7CDFEC4E7C046C2E77B68603328
:103FF0001A00FB1C1B781900100000F08AF87B687F
:104000001B691800FFF7B0FB01231800BD4606B07E
:1040100080BDC04600ED00E080B582B000AF7860A2
:104020000A00BB1C1A80BB1C1B88F0221340302BDB
:1040300001D0002300E001231800BD4602B080BD7E
:1040400080B582B000AF78600A00BB1C1A80BB1C30
:104050001A88F0231B01134080229200934209D05A
:10406000C0229200934207D080225200934205D191
:10407000052304E0062302E0072300E000231800E4
:10408000BD4602B080BD80B582B000AF78600A0046
:10409000BB1C1A80BB1C1B880F221340012B03D0B2
:1040A000022B03D0022302E0002300E001231800CA
:1040B000BD4602B080BD80B582B000AF78607B683D
:1040C00040220021180003F016F97B68180000F068
:1040D00005F87B681800BD4602B080BD80B582B08F
:1040E00000AF78607B6800221A647B6800225A6403
:1040F0007B6800229A64C046BD4602B080BD80B590
:1041000082B000AF78607B689B6C1800BD4602B03F
:1041100080BD80B584B000AF78600A00FB1C1A70C7
:104120000823FB181800FFF74BFC0823FB181800A6
:10413000FFF769FC03005A1E9341DBB2002B07D046
:104140007A68FB1C1B781900100000F062F8ECE79D
:104150000823FB181800FFF746FCC046BD4604B014
:1041600080BD80B582B000AF78607B689B6C4022D8
:10417000D31A1800BD4602B080BDB0B584B000AF00
:10418000786008243B191800FFF71AFC3B19180047
:10419000FFF739FC03005A1E9341DBB2002B06D017
:1041A0007B68180000F060F80500002400E001249E
:1041B0000823FB181800FFF716FC012C01D1C0469C
:1041C00000E02B001800BD4604B0B0BD80B582B041
:1041D00000AF78607B68180000F06FF8031E02D013
:1041E00001235B4203E07B685B6C7A68D35C180058
:1041F000BD4602B080BD80B582B000AF78607B68FC
:104200009B6C403B5A425341DBB21800BD4602B0A2
:1042100080BD80B582B000AF78600A00FB1C1A70C8
:104220007B681800FFF7E7FF03001A0001235340E3
:10423000DBB2002B14D07B681B6C7A68F91C097800
:10424000D1547B681A6C7B681100180000F042F8AA
:1042500002007B681A647B689B6C5A1C7B689A64BA
:10426000C046BD4602B080BD90B585B000AF786055
:104270007B68180000F021F8031E02D001235B4286
:1042800017E07B685A6C0F243B1979688A5C1A70B6
:104290007B685A6C7B681100180000F01BF8020064
:1042A0007B685A647B689B6C5A1E7B689A643B19D6
:1042B0001B781800BD4605B090BD80B582B000AF38
:1042C00078607B689B6C5A425341DBB21800BD4654
:1042D00002B080BD80B582B000AF786039603B68C5
:1042E00001333F2213401800BD4602B080BD80B5A7
:1042F00000AFFEE780B586B000AFF860B9607A60C5
:1043000000237B617B685A1E7A605A1E9341DBB2A0
:10431000002B14D0FB681B681A68BB68591CB96075
:104320001978FB681800904703005A1E9341DBB2CE
:10433000002B03D07B6901337B61E3E7C0467B69D7
:104340001800BD4606B080BD80B500AFC046BD4672
:1043500080BD000080B500AFFEF724FB02F08AFFAD
:10436000FFF7F2FF0120FEF72FF9094B180001F0CB
:1043700015FB074B180001F09FFBFDF7B3FFFDF79E
:10438000E7FF044B002BFAD000E000BFF7E7C04680
:10439000B00200200000000080B582B000AF020033
:1043A000FB1D1A70FB1D1B785BB21F221A40044BC9
:1043B000012191400A001A60C046BD4602B080BD8E
:1043C00000E100E090B583B000AF02003960FB1D52
:1043D0001A70FB1D1B787F2B32D92F4AFB1D1B78CF
:1043E0005BB20F210B40083B9B0806339B00D318A0
:1043F00004331B68FA1D127852B203210A40D2001E
:10440000FF2191400A00D2431A4011003B689B01F2
:10441000FF221A40FB1D1B785BB203200340DB0028
:104420009A401D48FB1D1B785BB20F242340083BBC
:104430009B080A4306339B00C31804331A6027E025
:10444000164AFB1D1B785BB29B08C0339B009B5830
:10445000FA1D127852B203210A40D200FF21914086
:104460000A00D2431A4011003B689B01FF221A4008
:10447000FB1D1B785BB203200340DB009A4007481A
:10448000FB1D1B785BB29B080A43C0339B001A508C
:10449000C046BD4603B090BD00ED00E000E100E085
:1044A00080B582B000AF78607B681800BD4602B06E
:1044B00080BD000080B582B000AF78607B68064A9E
:1044C0001A600723002B01DB013BFBE77B68180028
:1044D000BD4602B080BDC0460050004180B582B0EC
:1044E00000AF78607B681A68137802210B43137061
:1044F000C046BD4602B080BD80B582B000AF7860D6
:104500007B681A6813787F210B401370C046BD4644
:1045100002B080BD80B582B000AF78607B681A6859
:10452000137804210B431370C046BD4602B080BD12
:1045300080B582B000AF78607B681A68D3780C21B0
:104540008B43191C08230B43D370C046BD4602B0F1
:1045500080BD80B582B000AF78607B681A68D37880
:1045600003218B43191C02230B43D370C046BD4665
:1045700002B080BD80B582B000AF78607B681A68F9
:1045800013890C218B431381C046BD4602B080BD08
:1045900080B582B000AF78607B681A68138901210A
:1045A0008B431381C046BD4602B080BD80B582B04A
:1045B00000AF78607B681B689B8B1B07DB0FDBB24F
:1045C0001800BD4602B080BD80B582B000AF7860F3
:1045D0007B681B6808229A83C046BD4602B080BD36
:1045E00080B582B000AF78607B681A68138B0821B1
:1045F0000B431383C046BD4602B080BD80B582B078
:1046000000AF78607B681B689B8B5B07DB0FDBB2BE
:104610001800BD4602B080BD80B582B000AF7860A2
:104620007B681B6804229A83C046BD4602B080BDE9
:1046300080B582B000AF78607B681A68138B042164
:104640000B431383C046BD4602B080BD90B583B016
:1046500000AF786008001100FB1C021C1A70BB1C24
:104660000A1C1A707B681A68FB1C1B78B91C097835
:1046700007200140C8B2083359018B5C072404406D
:1046800007208343181C231C03438B54C046BD469C
:1046900003B090BD90B583B000AF78600800110002
:1046A000FB1C021C1A70BB1C0A1C1A707B681A685F
:1046B000FB1C1B78B91C097807200140C8B20833DD
:1046C00059018B5C07242040040170208343181C8F
:1046D000231C03438B54C046BD4603B090BD80B538
:1046E00082B000AF78600A00FB1C1A707B681A6801
:1046F000FB1C1B7808335B01D31807331B78DBB234
:104700005A1E9341DBB21800BD4602B080BD80B591
:1047100082B000AF78600A00FB1C1A707B681A68D0
:10472000FB1C1B7808335B01D318DB79DB06DB0F3E
:10473000DBB21800BD4602B080BD80B582B000AFCC
:1047400078600A00FB1C1A707B681A68FB1C1B78D7
:1047500008335B01D318DB799B06DB0FDBB2180053
:10476000BD4602B080BD80B582B000AF78600A005F
:10477000FB1C1A707B681A68FB1C1B7808335B01F2
:10478000D318DB795B06DB0FDBB21800BD4602B045
:1047900080BD80B582B000AF78600A00FB1C1A7043
:1047A0007B681A68FB1C1B7808335B01D318DB7924
:1047B000DB07DB0FDBB21800BD4602B080BD80B561
:1047C00082B000AF78600A00FB1C1A707B681A6820
:1047D000FB1C1B7808335B01D318DB799B07DB0FCD
:1047E000DBB21800BD4602B080BD80B582B000AF1C
:1047F00078600A00FB1C1A707B681A68FB1C1B7827
:1048000008335B01D31807337F221A70C046BD46B8
:1048100002B080BD80B582B000AF78600A00FB1C9A
:104820001A707B681A68FB1C1B7808335B01D3186D
:10483000073301221A70C046BD4602B080BD80B564
:1048400082B000AF78600A00FB1C1A707B681A689F
:10485000FB1C1B7808335B01D318073302221A7044
:10486000C046BD4602B080BD80B582B000AF786062
:104870000A00FB1C1A707B681968FB1C1A788423D9
:104880005B0052018A18D218537810210B435370E1
:10489000C046BD4602B080BD80B582B000AF786032
:1048A0000A00FB1C1A707B681968FB1C1A788423A9
:1048B0005B0052018A18D218537801210B435370C0
:1048C000C046BD4602B080BD80B582B000AF786002
:1048D0000A00FB1C1A707B681968FB1C1A78842379
:1048E0005B0052018A18D218137820210B431370F1
:1048F000C046BD4602B080BD80B582B000AF7860D2
:104900000A00FB1C1A707B681968FB1C1A78842348
:104910005B0052018A18D218137840210B431370A0
:10492000C046BD4602B080BD80B582B000AF7860A1
:104930000A00FB1C1A707B681968FB1C1A78842318
:104940005B0052018A18D218137801210B431370AF
:10495000C046BD4602B080BD80B582B000AF786071
:104960000A00FB1C1A707B681A68FB1C1B78083352
:104970005B01D3189B795B06DB0FDBB21800BD46E9
:1049800002B080BD80B582B000AF78600A00FB1C29
:104990001A707B681A68FB1C1B7808335B01D318FC
:1049A0009B791B06DB0FDBB21800BD4602B080BD51
:1049B00080B582B000AF78600A00FB1C1A707B687B
:1049C0001A68FB1C1B7808335B01D21853798021CD
:1049D00049420B435371C046BD4602B080BD80B50D
:1049E00082B000AF78600A00FB1C1A707B681A68FE
:1049F000FB1C1B7808335B01D218137940210B4351
:104A00001371C046BD4602B080BD80B582B000AF14
:104A100078600A00FB1C1A70FB1C1B787A685B012B
:104A2000D3189B689B049B0C9BB21800BD4602B038
:104A300080BD80B582B000AF786008001100FB1C1B
:104A4000021C1A703B000A1C1A80FB1C1B783A00DF
:104A500012889204920C91B27A685B01D3189A681A
:104A60008904890C920B92030A439A60C046BD46A2
:104A700002B080BD80B582B000AF78600800110040
:104A8000FB1C021C1A703B000A1C1A80FB1C1B78C2
:104A90003A0012889204920C91B27A685B01D318A2
:104AA00010339A688904890C920B92030A439A6026
:104AB000C046BD4602B080BD80B582B000AF786010
:104AC00008001100FB1C021C1A703B000A1C1A8013
:104AD000FB1C1B783A0012889204920C91B27A68FF
:104AE0005B01D3189A688904890C89030348024042
:104AF0000A439A60C046BD4602B080BDFF3F00F049
:104B000080B582B000AF786008001100FB1C021C69
:104B10001A703B000A1C1A80FB1C1B783A00128892
:104B20009204920C91B27A685B01D31810339A68A0
:104B30008904890C8903044802400A439A60C046EC
:104B4000BD4602B080BDC046FF3F00F080B584B0D6
:104B500000AFF8607A600B203B180A1C1A703B18F3
:104B60001B787A68F9685B01CB1804331A60C04679
:104B7000BD4604B080BD80B584B000AFF8607A60F7
:104B80000B203B180A1C1A703B181B787A68F968CE
:104B90005B01CB1814331A60C046BD4604B080BD1B
:104BA00080B582B000AF786008001100FB1C021CC9
:104BB0001A703B000A1C1A803B001A887B6811009F
:104BC000180000F047F803001A00FB1C1B78111CAA
:104BD00007220A40D1B27A685B01D3189A6807208D
:104BE00001400907034802400A439A60C046BD4697
:104BF00002B080BDFFFFFF8F80B582B000AF78604C
:104C000008001100FB1C021C1A703B000A1C1A80D1
:104C10003B001A887B681100180000F01BF80300A5
:104C20001A00FB1C1B78111C07220A40D1B27A68BB
:104C30005B01D31810339A68072001400907044824
:104C400002400A439A60C046BD4602B080BDC046DD
:104C5000FFFFFF8F80B582B000AF78600A00BB1CF9
:104C60001A80BB1C1B88402B20D006DC102B19D0CF
:104C7000202B19D0082B13D022E08022520093421F
:104C800018D080225200934202DC802B10D017E013
:104C90008022920093420FD00C4A93420ED00FE034
:104CA00000230EE001230CE002230AE0032308E0C6
:104CB000042306E0052304E0062302E0072300E0C6
:104CC00000231800BD4602B080BDC046FF030000AF
:104CD00080B582B000AF78600A00FB1C1A70FB1C24
:104CE0001B787A685B01D31810339A688021090613
:104CF0000A439A60C046BD4602B080BD80B582B00E
:104D000000AF786008001100FB1C021C1A703B0009
:104D10000A1C1A803B001A88FB1C19787B68180053
:104D2000FFF7CAFEFB1C19787B6800221800FFF70A
:104D300080FEFB1C1A787B6811001800FFF74FFEFD
:104D4000C046BD4602B080BD80B582B000AF78607D
:104D50007B681A68137801210B4313707B68181D58
:104D600080235B001A00002102F0C5FA7B681B68F3
:104D70009B78DB07DB0FDBB2002B00D0F6E77B680C
:104D80001A1D7B681B685A62C046BD4602B080BDD2
:104D900080B588B000AF78602F4B3B612E4BFB6035
:104DA0002D4BBB603B691B685B0B1F221340FB61F3
:104DB000FB681B689B0C1F221340BB61BB681B6810
:104DC000DB0D072213407B61FB691F2B01D10523FB
:104DD000FB61BB691F2B01D11D23BB617B69072BC5
:104DE00001D103237B617B681A68FB69191C1F23AF
:104DF0000B40D9B2138D081C1F21014088011749AF
:104E00000B40191C031C0B4313857B681A68BB6994
:104E1000191C1F230B40D9B2138D081C1F210840F9
:104E20001F218B43191C031C0B4313857B681A68D5
:104E30007B69191C07230B40D9B2138D081C07216D
:104E40000140080306490B40191C031C0B43138542
:104E5000C046BD4608B080BD246080003FF8FFFF1B
:104E6000FF8FFFFF80B582B000AF7860034A7B6898
:104E70001A607B681800BD4602B080BDCC79000086
:104E800080B584B000AFF860B9607A60FB68180044
:104E9000FFF7E8FF2E4AFB681A60FB68BA685A60A1
:104EA000FB6808331800FFF706F9FB687A685A6553
:104EB000FB6800229A65FB680022DA65FB68A02285
:104EC00000219950FB68A42200219950FB68A82278
:104ED00000219954FB68EC2200219950FB68F022D4
:104EE00000219950FB68F42200219954FB68F522B7
:104EF00000219954FB685868FB685B6DDBB2402267
:104F00001900FFF74DFEFB685868FB685B6DDBB26C
:104F100003221900FFF79AFBFB685868FB685B6D7A
:104F2000D9B2FB6860331A00FFF710FEFB685A68BD
:104F3000FB685B6DDBB219001000FFF7ADFCFB688E
:104F4000180000F0FEFAFB681800BD4604B080BDF2
:104F5000A879000080B582B000AF7860034A7B6812
:104F60001A607B681800BD4602B080BDA8790000B9
:104F700080B582B000AF78607B681800FFF7EAFF69
:104F80007B68180001F023FD7B681800BD4602B065
:104F900080BDB0B58EB000AF786000237B63002386
:104FA0003B632823FB181800FEF70AFD2823FB1893
:104FB0001800FEF728FD03005A1E9341DBB2002BB8
:104FC00007D07B6808331800FFF7CBF803003B637A
:104FD000ECE72823FB181800FEF705FD7B689B6DA6
:104FE0005A425341DBB2002B00D18BE02023FB1847
:104FF0001800FEF7E5FC2023FB181800FEF703FD60
:1050000003005A1E9341DBB2002B0BD07B68A82211
:105010009B5CDBB201225340DBB2002BEBD00024BF
:10502000002500E001252023FB181800FEF7DBFC1B
:10503000012D00D0F0E0C0467A6B3B6B9A4209D25A
:105040007B68A0229A587B68A4215B589A4201D2BF
:10505000012300E00023002B17D07B6808331C00DD
:105060007B68A0229B58591C7A68A02011507A684E
:105070006021D3185B181B78DBB219002000FFF702
:10508000C8F87B6B01337B63D6E77B68A0229A5814
:105090007B68A4215B58D31A5A425341DBB2002BE0
:1050A00000D1B8E07B68A022002199507B680122E2
:1050B0009A651823FB181800FEF782FC1823FB18CA
:1050C0001800FEF7A0FC03005A1E9341DBB2002B30
:1050D00012D07B68A822002199547B68F5229B5C42
:1050E000DBB2002BEAD07B68F522002199547B6863
:1050F000180000F026FAE1E71823FB181800FEF765
:1051000072FC88E01023FB181800FEF759FC1023EE
:10511000FB181800FEF777FC03005A1E9341DBB220
:10512000002B0BD07B68F4229B5CDBB20122534046
:10513000DBB2002BEBD00024002500E0012510237A
:10514000FB181800FEF74FFC012D65D1C0467A6BA5
:105150003B6B9A4209D27B68EC229A587B68F0211B
:105160005B589A4201D2012300E00023002B17D0A4
:105170007B6808331C007B68EC229B58591C7A68BA
:10518000EC2011507A68AC21D3185B181B78DBB285
:1051900019002000FFF73DF87B6B01337B63D6E7F6
:1051A0007B68EC229A587B68F0215B58D31A5A42EC
:1051B0005341DBB2002B2ED07B68EC2200219950AA
:1051C0007B6800229A650823FB181800FEF7F8FB9D
:1051D0000823FB181800FEF716FC03005A1E934123
:1051E000DBB2002B12D07B68F422002199547B683B
:1051F000F5229B5CDBB2002BEAD07B68F522002114
:1052000099547B68180000F09CF9E1E70823FB182B
:105210001800FEF7E8FB7C6B23001800BD460EB0BB
:10522000B0BD80B588B000AFF860B9607A60FB6847
:105230001800FFF7AEFE0023FB61BB68BB611023C3
:10524000FB181800FEF7BCFB1023FB181800FEF734
:10525000DAFB03005A1E9341DBB2002B1ED0FA6921
:105260007B689A4208D2FB6808331800FEF747FFB4
:10527000031E01D0012300E00023002BE4D0FB68D3
:1052800008331800FEF7F0FF0100BA69FB69D31874
:10529000CAB21A70FB690133FB61E0E71023FB1807
:1052A0001800FEF7A0FBFB691800BD4608B080BDE2
:1052B00080B588B000AF78607B689B6D5A425341DF
:1052C000DBB2002B30D01F23FB187A68A821525C78
:1052D0001A701423FB181800FEF772FB1423FB1836
:1052E0001800FEF790FB03005A1E9341DBB2002B1F
:1052F00006D01F23FB187A68A821525C1A70EDE7CC
:105300001423FB181800FEF76EFB1F23FB181B78F5
:10531000002B07D07B68A4229A587B68A0215B5899
:10532000D31A30E000232EE01E23FB1800221A704F
:105330000C23FB181800FEF743FB0C23FB18180086
:10534000FEF761FB03005A1E9341DBB2002B06D02F
:105350001E23FB187A68F421525C1A70EDE70C23C7
:10536000FB181800FEF73FFB1E23FB181B78002BD1
:1053700007D07B68F0229A587B68EC215B58D31ADF
:1053800000E00023C0461800BD4608B080BD80B5CF
:1053900088B000AF78607B685A687B685B6DDBB271
:1053A00019001000FFF7F5F9031E00D1A1E07B689A
:1053B0005A687B685B6DDBB219001000FFF725FBB4
:1053C0000300FB61FB69002B04D17B68180000F02F
:1053D000B8F885E07B68DB6D5A425341DBB2002BA5
:1053E0003FD07B68A421FA695A507B680122DA65B4
:1053F0007B6858687B685B6DD9B27B68AC331A00F8
:10540000FFF7A4FB1423FB181800FEF7D9FA1423A6
:10541000FB181800FEF7F7FA03005A1E9341DBB29F
:10542000002B18D07B68A822012199547B68F422B4
:105430009B5CD9B27B68F52299547B68F5229B5C12
:10544000DBB201225340DBB2002BE0D07B681800B6
:1054500000F077F8DBE71423FB181800FEF7C3FA17
:105460003EE07B68F021FA695A507B680022DA65D9
:105470007B6858687B685B6DD9B27B6860331A00C3
:10548000FFF764FB0C23FB181800FEF799FA0C23B6
:10549000FB181800FEF7B7FA03005A1E9341DBB25F
:1054A000002B18D07B68F422012199547B68A82234
:1054B0009B5CD9B27B68F52299547B68F5229B5C92
:1054C000DBB201225340DBB2002BE0D07B68180036
:1054D00000F037F8DBE70C23FB181800FEF783FA1F
:1054E0007B685A687B685B6DDBB219001000FFF7C0
:1054F0007CF9C046BD4608B080BD80B582B000AF23
:1055000078607B681800FFF744FD7B68083318005B
:10551000FEF7F5FD03001800BD4602B080BD80B562
:1055200082B000AF78607B681800FFF732FD7B68BF
:1055300008331800FEF74AFE03001800BD4602B00B
:1055400080BD80B582B000AF78607B6858687B68AA
:105550005B6DDBB240221900FFF7D0FBC046BD46B1
:1055600002B080BD80B500AF034B180000F0FEFF15
:10557000C046BD4680BDC046B002002090B589B08F
:1055800000AFF860B9607A607B68012B01D8002316
:1055900057E07B68180001F091FE0300BB61BB6817
:1055A000180001F06BFF03000133DBB2DB18DAB245
:1055B000BB691A70BB69013303221A701F23FB18E1
:1055C00002221A701F23FB181B787A689A4224D98A
:1055D000BB681B78002B20D0BB685A1CBA601F2404
:1055E0003A1912783919501C08701100BA6952180A
:1055F0001B7813703B191B787A689A420CD01F21D4
:105600007B181B78BA69D31800221A707B181A7895
:105610007B1801321A70D5E7C0461F23FB181A7891
:10562000B9690A4B180000F05DFE020017243B190F
:10563000511E8A411A70BB69180001F049FE3B19DE
:105640001B781800BD4609B090BDC046B0020020CE
:1056500080B582B000AF78600A00FB1C1A70FB1C9A
:105660001B78002B06D00B4B01221A700A4B00222C
:105670001A800AE0074B00221A70074B1B881A0099
:1056800006497B68180000F02DFEC046BD4602B0FA
:1056900080BDC046590600205A0600205C06002046
:1056A00090B585B000AF786039600F243B190022B7
:1056B0001A7001F069F902003B191900100001F09D
:1056C00071F802003B681B689A183B681A603B1926
:1056D0001B781800BD4605B090BD0000B0B588B07D
:1056E00000AF786039600023BB612F4B01221A7034
:1056F0001F257C191823FA187B6811001800FFF782
:10570000CFFF030023700C210C007B181800092325
:105710001A00002101F0EFFD21007B1809221A7008
:105720007B1802225A707B1801225A717B18A02222
:10573000DA717B18FA221A72BB699BB209339AB2EA
:105740007B185A807B187A1912781A71164B00222E
:105750001A703B68092B08D10C23F9187B680922C1
:10576000180000F0BFFD01231AE00023BB617B6835
:1057700001211800FFF76CFF0C23F9187B68092240
:10578000180000F0AFFD1823FA187B68110018000C
:10579000FFF786FF7B6800211800FFF759FF012300
:1057A0001800BD4608B0B0BD5806002090B599B0AD
:1057B00000AF7860396057217B183A68D2781A7048
:1057C0005F23FB1800221A700023BB657B181B782F
:1057D000022B10D13B689A79DB791B0213439BB2F1
:1057E0001A00684B11001800FFF778FF03005A1EDB
:1057F0009341DBB2C1E001F0C7F802003B68190039
:10580000100000F0F9FF03003B653B6D002B05D055
:105810003B6DDA17D31ADB0FDBB2AEE05723FB1870
:105820001B78012B2AD13B689A79DB791B02134341
:105830009BB2082B03D15E23FB1801221A705E2352
:10584000FB181B78002B01D04F4B00E04F4BBB6582
:10585000BB6D1B7819003B689A79DB791B021343F7
:105860009BB2994200DC70E03B689A79DB791B02BD
:1058700013439AB25F23FB181A7066E05723FB1894
:105880001B78032B61D13B689B78002B0DD1404BDB
:10589000BB65BB6D1B7819003B689A79DB791B02ED
:1058A00013439BB2994250DD46E03B689B78022B44
:1058B0000DD13B689A79DB791B0213439BB21A0026
:1058C00034497B681800FFF759FE030055E03B6838
:1058D0009B78012B0DD13B689A79DB791B0213432E
:1058E0009BB21A002C497B681800FFF747FE0300A3
:1058F00043E03B689B78032B1CD10C243B194122CD
:105900000021180001F0F7FC01F03EF802003B19FD
:105910001900100000F093FF3B689A79DB791B02B5
:1059200013439BB21A0039197B681800FFF726FE53
:10593000030022E0002320E03B689A79DB791B0218
:1059400013439AB25F23FB181A70BB6D002B01D171
:10595000002312E05F23FB181B78002B04D15F2388
:10596000FB18BA6D12781A705F23FB181A78B96D9C
:105970007B68180000F0B6FC01231800BD4619B082
:1059800090BDC046B0020020487900005C7900005C
:10599000287900002C7900003C79000080B582B0A5
:1059A00000AF78603D4BDA693C4B20210A43DA6155
:1059B0003B4958228B5C012003438B54384A3C23DB
:1059C000D35CDBB2364A0F218B43D9B23C23D1548E
:1059D000334A3C23D35CDBB2314A06210B43D9B2B4
:1059E0003C23D1542E4959228B5C012003438B5414
:1059F0002B4A3C23D35CDBB2294A0F210B40D9B29E
:105A00003C23D154264A3C23D35CDBB2244A602198
:105A10000B43D9B23C23D154224B234A5A80214B09
:105A20005B781B06DB0FDBB2002B00D0F7E71F4BC8
:105A30001800FCF767FD1E4B1800FFF785F91C4B9B
:105A40001800FFF7A5F91A4B1800FEF771FD184B67
:105A50001800FEF77EFD164B1800FEF74DFD144BA7
:105A60001800FEF757FD124B1800FEF783FD0021CA
:105A70000720FEF7A7FC0720FEF78EFC0C4B180052
:105A8000FEF72CFD7B6801221A700A4B00211800DA
:105A900001F074FAC046BD4602B080BD000400406B
:105AA00000440041000C0040064000006555000025
:105AB000AC0100209C07002080B582B000AF786068
:105AC0007B681B7801225340DBB2002B01D00023FE
:105AD0000FE00A4B1800FEF75BFD084B1800FEF7BD
:105AE0007FFD064B1800FEF7A3FD054B00221A6050
:105AF00001231800BD4602B080BDC046AC010020A5
:105B0000B402002080B582B000AF786039601B4BD2
:105B1000002200211800FEF7ADFF184B00211800ED
:105B2000FEF78DFE154B00211800FEF741FF134BC9
:105B300000211800FEF743FE03001A000123534022
:105B4000DBB2002B00D0F2E70D4A3B68191C7F2323
:105B50000B40D9B2937A7F2008407F218B43191CD8
:105B6000031C0B439372064A937A802149420B43EC
:105B70009372C046BD4602B080BDC046AC01002055
:105B800000500041B0B584B000AF7860396000F0DB
:105B9000FBFE02000F257C193B681900100000F085
:105BA00071FE030023707B191B7801225340DBB286
:105BB000002B04D07B680021180000F0E3FB0F23CA
:105BC000FB181B781800BD4604B0B0BD90B585B079
:105BD00000AF78600F23FB1801221A700F23FB1807
:105BE0001B78092B19D80F23FB181A780D4B92003C
:105BF000D358002B11D00F243B1919783B191A7870
:105C0000084B9200D2587B68180000F00DF83B1941
:105C10001A783B1901321A70E0E7C046BD4605B05C
:105C200090BDC0465C07002090B585B000AFF8601D
:105C3000B9607A607B68832B18D1BB68D9B24E4BB0
:105C400040221800FEF7D8FFBB68D9B2BB689A01A2
:105C50004A4BD218484B1800FEF78DFFBB68D9B2EB
:105C6000454B04221800FEF715FD81E07B68022BEE
:105C700028D1434BBA689200D358002B12D0404B26
:105C8000BA689200D358002B0CD03D4BBA689200F2
:105C9000D1583B4BBA689200D3581B6814331B6829
:105CA00008009847F82000F085FE03001C00BA6841
:105CB000314B19002000FFF7E3F8314BBA6892002E
:105CC000D45055E07B68822B18D1BB68D9B22A4BDF
:105CD00040221800FEF790FFBB68D9B2BB689A015A
:105CE000264BD218244B1800FEF745FFBB68D9B2EB
:105CF000214B03221800FEF7CDFC39E07B68002B16
:105D000036D1BB68D9B21C4B40221800FEF748FFC1
:105D1000BB68D9B2BB689A011A4BD218164B18004F
:105D2000FEF714FFBB68D9B2134B01221800FEF72F
:105D30008DFCBB68D9B2104B40221800FEF75CFF07
:105D4000BB68D9B2BB689A010C4BD2180A4B180039
:105D5000FEF711FFBB68D9B2074B01221800FEF70E
:105D600099FCBB68D9B2044B40221800FEF7C6FF6D
:105D7000C046BD4605B090BDAC0100207C040020AB
:105D80003C060020BC02002080B582B000AF7860E5
:105D900039603A687B681100180000F08BF8030046
:105DA0005A1E9341DBB2002B0DD03B68DAB2084B90
:105DB00011001800FEF7FCFD3B68DAB2044B11003D
:105DC0001800FEF73CFDC046BD4602B080BDC0468F
:105DD000AC01002080B582B000AF786039603B68CC
:105DE000D9B23B689A010F4BD2180F4B1800FEF73F
:105DF000C2FE3B68D9B20C4B00221800FEF73AFEF7
:105E00003B68DAB2084B11001800FEF718FD3B683A
:105E1000DAB2054B11001800FEF7CAFDC046BD46B8
:105E200002B080BD7C040020AC01002080B582B0AF
:105E300000AF78603960064A3B6808335B01D318CD
:105E4000053320221A70C046BD4602B080BDC04650
:105E50000050004180B588B000AFF860B9607A604A
:105E6000BB687B61FB680021180000F0F1F80300BB
:105E7000FB61FA697B689A4201D97B68FB610C4B34
:105E80003B610023BB61BA697B689A420BD23A69D5
:105E9000BB69D2187969BB69CB1812781A70BB69D3
:105EA0000133BB61EFE7FB691800BD4608B080BD58
:105EB000BC02002080B582B000AF78603960104B22
:105EC0003A689200D358002B0ED00D4B3A689200DE
:105ED000D1580B4B3A689200D3581B6808331B68A3
:105EE00008009847030007E03B68DAB2054B110051
:105EF0001800FEF78AFD03001800BD4602B080BD01
:105F00003C060020AC01002080B584B000AFF860F2
:105F1000B9607A603B603B4B1B685A425341DBB22D
:105F2000002B02D001235B4268E0374BBA68920035
:105F3000D358002B0FD0344BBA689200D058324B54
:105F4000BA689200D3581B6804331B683A687968B2
:105F50009847030052E0BA68FB6811001800FFF789
:105F6000A9FF02003B689A429B415B42DBB2002BD7
:105F700007D0BA68FB6811001800FFF79BFF030009
:105F80003B60BB68D9B2214B00221800FEF751FDDF
:105F9000BB68DAB21D4B11001800FEF7C5FCBB68E8
:105FA0009A011B4BD1183A687B68180001F09AF9E6
:105FB0003B68002B09D0BA68FB6811001800FFF796
:105FC00079FF031E01D1012300E00023002B14D030
:105FD000BB68DAB20D4B11001800FEF700FDBB687C
:105FE000DAB20A4B11001800FEF714FCBB68DAB2F3
:105FF000064B11001800FEF74FFC3B681800BD4629
:1060000004B080BDB40200203C060020AC0100209A
:10601000BC02002080B584B000AF786039600F23E7
:10602000FA18396878680123FFF76EFF0300013B17
:106030005A1E9341DBB2002B02D001235B4202E0E7
:106040000F23FB181B781800BD4604B080BD00006C
:1060500080B582B000AF786039603B68D9B23B68E8
:106060009A01234BD218234B1800FEF76FFD3B68B3
:10607000D9B2204B40221800FEF71EFD3B68D9B272
:106080001C4B00221800FEF7D4FC3B68DAB2194B17
:1060900011001800FEF7A3FC3B68DAB2154B1100A3
:1060A0001800FEF759FC03001A0001235340DBB22D
:1060B000002B00D0F0E73B68DAB20E4B110018005D
:1060C000FEF767FB03001A0001235340DBB2002BED
:1060D00000D0F0E73B68DAB2064B11001800FEF77B
:1060E00094FC0300DBB21800BD4602B080BDC04680
:1060F000BC020020AC01002080B588B000AFF86081
:10610000B9607A603B600023FB610023BB61554BA3
:106110001B685A425341DBB2002B02D001235B4281
:106120009CE03A688023DB019A4202D901235B425A
:1061300094E03B68002B00D18FE0BB68DAB24A4B99
:1061400011001800FEF71EFC031E3CD0474B1B68D5
:106150004749180001F002F803001A00454B534369
:106160001721180000F0FAFF03007B61BB68DAB268
:106170003D4B11001800FEF722FB03001A0001231B
:106180005340DBB2002B1ED03B4ABB68D3181B78B0
:10619000002B04D17B695A1E7A61002B01D10123A7
:1061A00000E00023002BE1D0334ABB68D318012262
:1061B0001A70BB68D9B22C4B00221800FEF75AFCAB
:1061C00001235B424AE02C4ABB68D31800221A70B4
:1061D0003B683F2B09D9BB68DAB2234B110018008A
:1061E000FEF776FD4023BB6101E03B68BB61BB6805
:1061F0009A01224BD318BA697968180001F072F835
:10620000BB68D9B2BB689A011C4BD218164B180058
:10621000FEF7B1FCBB68D9B2BB699AB2124B180049
:10622000FEF728FCBB68DAB20F4B11001800FEF72E
:1062300006FBBB68DAB20C4B11001800FEF7B8FB86
:10624000FA69BB69D318FB613A68BB69D31A3B6032
:106250007A68BB69D3187B606BE7FB691800BD46A1
:1062600008B080BDB4020020AC010020080000206E
:1062700040420F0070110100840700207C040020C0
:1062800080B584B000AFF860B9607A603B60BB68ED
:106290009A01124BD3183A687968180001F022F875
:1062A000BB68D9B2BB689A010C4BD2180C4B1800D2
:1062B000FEF761FCBB68D9B2094B00221800FEF75B
:1062C0001FFCBB68D9B23B689AB2054B1800FEF7B9
:1062D000D1FB3B681800BD4604B080BD7C040020A3
:1062E000AC01002080B588B000AFF860B9607A607A
:1062F000BB68BB617B687B6100233B610023FB6162
:106300001C4B1B78002B01D07B692EE01A4B1B78AD
:10631000002B13D0194B1B881A00194BD3187A681D
:10632000B969180000F0DEFF7B689AB2134B1B8836
:10633000D3189AB2114B1A807B6916E07B68002B48
:1063400012D0BA69FB69D2187B68F8680021FFF7A0
:1063500097FF03003B61FA693B69D318FB617A68D8
:106360003B69D31A7B60E9E77B691800BD4608B03A
:1063700080BDC04658060020590600205A0600205D
:106380005C06002080B582B000AF786039603B6861
:10639000D9B2044B00221800FEF76CFBC046BD4684
:1063A00002B080BDAC01002080B586B000AF78603F
:1063B00039603B685B780B2B00D9C2E09A00654BD3
:1063C000D3181B689F463B681B78002B0ED1142105
:1063D0007B1800221A707B1800225A707A1878688D
:1063E00002230021FFF74CFF0123AEE010217B18B0
:1063F00000221A707B1800225A70574B1B78012B11
:1064000003D11023FB1801221A701023FA187868A0
:1064100002230021FFF734FF012396E03B689B78BD
:10642000012B17D10C217B1800221A707B18002237
:106430005A704A4B1B78012B03D10C23FB18012205
:106440001A700C23FA18786802230021FFF718FF4E
:1064500001237AE0404B00221A707B68002118006B
:10646000FFF790FF012370E03B689B78012B0ED172
:106470003A4B01221A7008217B1800221A707A18F0
:10648000786801230021FFF7FBFE01235DE03B68F4
:106490009B78002B57D1304B01221A707B6800216A
:1064A0001800FFF76FFF01234FE03B689B781A004D
:1064B0007B6811001800FFF725FB012345E03A68CF
:1064C0007B6811001800FFF771F903003DE000231D
:1064D0003BE0234A786801230021FFF7D1FE012326
:1064E00033E03B681B781A001F23134013D17B68ED
:1064F0001800FFF76BFB3B689B781A00184B1A607B
:10650000184B180000F020FD7B6800211800FFF7F1
:1065100039FF012319E0002317E0134A78680123AB
:106520000021FFF7ADFE01230FE03B689B781A00C6
:106530000D4B1A607B6800211800FFF723FF012331
:1065400003E0012301E0C04601231800BD4606B068
:1065500080BDC04670790000B2020020B102002068
:10656000B40200209C070020B802002090B587B03C
:1065700000AF78605E4B1B78002B00D0B4E05D4B21
:106580001800FEF713F8031E11D05A4B1800FEF73F
:106590001BF87B68002200211800FFF745FB554BD4
:1065A00000211800FEF760F9534B00221A60514B8E
:1065B0001800FEF723F8031E03D04E4B1800FEF719
:1065C0002BF84C4B00211800FEF7B7F8031E04D03F
:1065D000484B00211800FEF777F9464B00211800C0
:1065E000FEF795F8031E48D008243B19434A03CA16
:1065F00003C3404B002200211800FEF71AFA3D4B5E
:1066000000211800FEF7EBF93B191B781A006023F4
:1066100013400BD11723FC180823FA187B681100CC
:106620001800FFF7C1FE030023700AE01723FC18CF
:106630000823FA187B6811001800FFF7A3FA03007B
:1066400023701723FB181B78002B05D0294B002142
:106650001800FEF7ADF904E07B6800211800FFF791
:10666000E5FB244B00211800FEF77DF8031E04D043
:10667000204B00211800FEF73FF91E4B00211800A7
:10668000FEF7B3F801233B613B69072B2DDC3B6927
:10669000DAB2184B11001800FEF721F8031E1FD0C4
:1066A000174B3A699200D358002B0CD0144B3A691F
:1066B0009200D158124B3A699200D3581B681B685C
:1066C000080098470CE03A690E4B1100180000F0E2
:1066D0005DFB3B69DAB2074B11001800FEF785F845
:1066E0003B6901333B61CFE7C046BD4607B090BD73
:1066F00059060020AC010020B4020020BC0200209A
:106700003C0600209C07002080B582B000AF786076
:106710007B6800221A707B6801225A707B68002215
:106720005A607B6807221A727B681800BD4602B067
:1067300080BD000080B582B000AF78607B689A00B1
:10674000024BD3181800BD4602B080BD5C07002084
:1067500080B582B000AF786039607B68012B0BD1C7
:106760003B68074A934207D1064B1800FDF7A2FE8B
:10677000054B1800FDF794FEC046BD4602B080BD33
:10678000FFFF0000AC010020B002002080B500AF88
:10679000034B19000120FFF7DBFFBD4680BDC0465B
:1067A000FFFF000080B586B000AF7860396000233D
:1067B0007B617B685B683B613B69002B17D03B6961
:1067C0001B6804331B6839683A6910009847030056
:1067D000FB60FB68002B02DA01235B4208E07A6968
:1067E000FB68D3187B613B69DB683B61E4E77B694D
:1067F0001800BD4606B080BD80B584B000AF78609B
:1068000039607B685B68FB60FB68002B12D0FB681B
:106810001B6808331B683968FA6810009847030042
:10682000BB60BB68002B01D0BB6804E0FB68DB6881
:10683000FB60E9E700231800BD4604B080BD80B5C9
:1068400084B000AF786039607B685B68FB60FB6890
:10685000002B10D0FB681B680C331B683968FA6882
:106860001000984703001A003B689B183B60FB68C8
:10687000DB68FB60EBE73B6800221A70C046BD4650
:1068800004B080BD80B584B000AF786039607B68AB
:106890005B68FB60FB68002B0ED0FB681B681B6805
:1068A0003968FA6810009847031E01D0012304E0FC
:1068B000FB68DB68FB60EDE700231800BD4604B011
:1068C00080BDB0B584B000AF786039607B685B781C
:1068D0001A003B689B79D3187A68127A934201DDDB
:1068E00000234CE07B685B68002B03D17B683A682F
:1068F0005A600DE07B685B68FB60FB68DB68002B1F
:1069000003D0FB68DB68FB60F7E7FB683A68DA6096
:106910007B681A783B681A717B685A783B685A71B1
:106920007B681A783B68DB79D318DAB27B681A7017
:106930000B23FB1800221A703B689B790B22BA18B4
:1069400012789A421AD23B689A680B257B191B78F9
:106950009B00D4187B685B781800FFF7EBFE030000
:1069600022681A607B685B780133DAB27B685A7000
:106970007B191A787B1901321A70DDE701231800A0
:10698000BD4604B0B0BD000080B500AF074B1B682A
:106990000122134006D1064B1800FFF7B5FE034B4A
:1069A00001221A60024B1800BD4680BD98070020E6
:1069B0008C07002080B582B000AF78607B6818003B
:1069C00000F07CFC03001800BD4602B080BD80B51D
:1069D00082B000AF78607B68180000F079FCC04698
:1069E000BD4602B080BD80B582B000AF786039602E
:1069F0007B683A685A60C046BD4602B080BD000060
:106A000090B585B000AFF860080011007B600B24E2
:106A10003B19021C1A700A203B180A1C1A700B4AF8
:106A2000FB681A60FB683A1912789A71FB683A1889
:106A30001278DA71FB687A689A60FB680022DA6083
:106A4000FB681800BD4605B090BDC046347A000012
:106A500080B582B000AF786039607B681B794133C4
:106A6000DAB23B681A7001231800BD4602B080BD3F
:106A700080B582B000AF78600A00FB1C1A707B689A
:106A80001968FB1C1A7884235B0052018A18D218FB
:106A9000537802210B435370C046BD4602B080BDFF
:106AA00090B595B000AF786039603B681B780233D1
:106AB000DAB23B681A700C2004003B18180042231D
:106AC0001A00002100F017FC20003B1808221A7061
:106AD0003B180B225A703B180222DA703B18022234
:106AE0001A713B1802225A713B1809221A723B187C
:106AF00004225A723B1801221A733B1802225A735D
:106B00003B1802229A733B1805225A743B18242220
:106B10009A743B1810221A753B1801225A753B18BB
:106B200004229A753B182422DA753B1802221A7641
:106B30003B1806225A763B1805229A763B182422E7
:106B4000DA763B1806221A773B180522DA773B18CB
:106B50002022242199543B182122012199543B18C9
:106B60002222012199543B182322012199543B18D8
:106B70002422072199543B182522052199543B18BA
:106B80002722032199543B1810221A853B182A22E8
:106B9000102199543B182B22092199543B182C227F
:106BA000042199543B182F22022199543B1830227A
:106BB0000A2199543B183422072199543B18352255
:106BC000052199543B183722022199543B18402241
:106BD0001A873B183B22072199543B183C22052178
:106BE00099543B183E22022199543B183F331A789E
:106BF00000210A40111C40220A431A705A780021D1
:106C00000A405A707B681A7D3B189A707B681A7D1F
:106C10003B189A727B681A7D3B185A777B681B7DFC
:106C20000133DAB23B189A777B685B7D802252424F
:106C30001343D9B23B18262299547B681B7D01333C
:106C4000D9B23B182D2299547B685B7D0133D9B2B0
:106C50003B18362299547B685B7D0233DBB25BB212
:106C60008022524213435BB2D9B23B183D22995461
:106C70003918054B42221800FFF734FB03001800B7
:106C8000BD4615B090BDC046B002002008B4024B0E
:106C90009C46103808BC6047A16A000080B582B0ED
:106CA00000AF7860396000231800BD4602B080BD97
:106CB00008B4024B9C46103808BC60479D6C00002D
:106CC00080B584B000AF786039600023FB60FB685A
:106CD000072B1DDC7B680F221340BB607B681B0900
:106CE0007B60BB68092B04DDBB68DBB23733DBB2EA
:106CF00003E0BB68DBB23033DBB2FA6807218A1AE3
:106D000011003A6852181370FB680133FB60DEE72C
:106D1000C046BD4604B080BD80B582B000AF78608B
:106D20003960124B1B683A6811001800FFF7C8FF62
:106D30000F4B1A683B68083319001000FFF7C0FFBB
:106D40000C4B1A683B68103319001000FFF7B8FFAE
:106D5000094B1A683B68183319001000FFF7B0FFA1
:106D600020231800BD4602B080BDC0460CA08000A4
:106D700040A0800044A0800048A0800008B4024BDE
:106D80009C46103808BC6047196D000080B582B081
:106D900000AF78603960C046BD4602B080BD0000DB
:106DA00080B584B000AF786039600F23FB183A6873
:106DB00012781A700E23FB183A6852781A703B68E2
:106DC0001A795B791B0213439AB20D217B181A7052
:106DD0007B681B7D7A1812789A4201D0002366E006
:106DE0000F23FB181B78A12B0CD10E23FB181B784B
:106DF000212B07D13049314B07221800FFF772FAD7
:106E0000012354E00F23FB181B78212B4ED10E23B6
:106E1000FB181B78202B05D12749284B0722180087
:106E2000FFF718F80E23FB181B78222B03D13B68C1
:106E30009A78214BDA710E23FB181B78202B04D093
:106E40000E23FB181B78222B1CD11B4B1A68962390
:106E5000DB009A4208D1184BDB79DBB21A00012320
:106E6000134001D1012300E00023002B03D0FA20BE
:106E7000FCF7F0F901E0FCF7FDF9104B00211800D8
:106E8000FFF780FA0E23FB181B78232B0CD13B68ED
:106E9000DB781B023A6892781A43094B1A60074B59
:106EA00000211800FFF76EFA012300E0002318000C
:106EB000BD4604B080BDC04610000020B0020020D6
:106EC0001800002008B4024B9C46103808BC6047EC
:106ED000A16D000080B582B000AF786039607B683A
:106EE0001800FCF719FD7B68103318007B68283305
:106EF00002220321FFF784FD114A7B681A60114AC0
:106F00007B681A617B683A681A627B6824220021D8
:106F100099547B6883229A627B680222DA627B68DA
:106F200082221A63FFF730FD02007B6810331900DC
:106F30001000FFF7C6FC7B681800BD4602B080BD9C
:106F4000E47900001C7A000080B582B000AF786060
:106F50007B685A7D084B11001800FFF789FD7B689C
:106F60005B7D0133DAB2044B11001800FDF794FC8D
:106F7000C046BD4602B080BDAC01002080B582B0E5
:106F800000AF78603960C046BD4602B080BD0000E9
:106F900080B582B000AF78607B681A6A7B685B7DE1
:106FA000013319001000FEF785FF0200054B1B6836
:106FB0000133591E8B41DBB2D3181800BD4602B015
:106FC00080BDC0461C00002080B582B000AF786054
:106FD0003F231800BD4602B080BD000080B582B0DE
:106FE00000AF78600B4B1B68013302D0094B1B6864
:106FF0000BE07B681B6814331B687A6810009847A5
:107000000200044B1A60034B1B681800BD4602B017
:1070100080BDC0461C00002080B584B000AF786001
:107020000D4B1B68013308D00B4B1B68FB600A4BF0
:10703000012252421A60FB6809E07B681A6A7B6889
:107040005B7D013319001000FEF7E4FF0300180018
:10705000BD4604B080BDC0461C00002080B582B093
:1070600000AF78607B681A6A7B685B7D0233190029
:107070001000FEF789FEC046BD4602B080BD80B557
:1070800082B000AF78607B681A6A7B685B7D0233F0
:1070900019001000FEF79EFEC046BD4602B080BD3E
:1070A00080B586B000AFF860B9607A60FB68186A96
:1070B000FB685B7D023319007B68BA68FFF71CF838
:1070C00003007B617B69002B01D07B6905E0FB68D5
:1070D00001211800FFF787FC00231800BD4606B009
:1070E00080BD80B582B000AF78600A00FB1C1A70CA
:1070F0007B681B6804331B68F91C78680122984779
:1071000003001800BD4602B080BD000080B582B00B
:1071100000AF786039607B68012B09D13B68064A73
:10712000934205D1054A064B11001800FFF7D2FE25
:10713000C046BD4602B080BDFFFF0000B002002087
:107140009C07002080B500AF034B19000120FFF71A
:10715000DDFFBD4680BDC046FFFF000000224308A2
:107160008B4274D303098B425FD3030A8B4244D30F
:10717000030B8B4228D3030C8B420DD3FF22090251
:1071800012BA030C8B4202D31212090265D0030B10
:107190008B4219D300E0090AC30B8B4201D3CB0306
:1071A000C01A5241830B8B4201D38B03C01A524148
:1071B000430B8B4201D34B03C01A5241030B8B424A
:1071C00001D30B03C01A5241C30A8B4201D3CB0235
:1071D000C01A5241830A8B4201D38B02C01A52411A
:1071E000430A8B4201D34B02C01A5241030A8B421D
:1071F00001D30B02C01A5241CDD2C3098B4201D335
:10720000CB01C01A524183098B4201D38B01C01AB2
:10721000524143098B4201D34B01C01A5241030929
:107220008B4201D30B01C01A5241C3088B4201D3D8
:10723000CB00C01A524183088B4201D38B00C01A85
:10724000524143088B4201D34B00C01A5241411AAC
:1072500000D20146524110467047FFE701B50020B9
:1072600000F006F802BDC0460029F7D076E7704767
:107270007047C04670B500260C4D0D4C641BA41021
:10728000A64209D1002600F011F90A4D0A4C641BF0
:10729000A410A64205D170BDB300EB589847013643
:1072A000EEE7B300EB5898470136F2E78400002080
:1072B00084000020840000209400002010B5034BBF
:1072C0000100186800F06AF810BDC04620000020D8
:1072D00010B5034B0100186800F016F810BDC04649
:1072E00020000020002310B59A4200D110BDCC5CD4
:1072F000C4540133F8E703001218934200D17047D9
:1073000019700133F9E7000070B50500002910D0AD
:107310000C1F2368002B00DAE418280000F0B5F8F1
:107320001D4A1368002B05D163601460280000F02B
:10733000ADF870BDA34209D9216860188342F3D12A
:1073400018685B6841182160EEE713005A68002A4C
:1073500001D0A242F9D919685818A0420BD120686F
:107360000918581819608242E0D110685268411813
:1073700019605A60DAE7A04202D90C232B60D5E7E6
:1073800021686018824203D1106852684118216058
:1073900062605C60CAE7C046D0070020032370B576
:1073A000CD1C9D43083506000C2D1ED20C25A9428C
:1073B0001DD8300000F069F8254A14682100002922
:1073C00019D1244C2368002B03D1300000F044F87D
:1073D00020602900300000F03FF8431C2BD10C2323
:1073E0003000336000F052F803E0002DDFDA0C23A8
:1073F0003360002070BD0B685B1B19D40B2B03D9C5
:107400000B60CC18256003E04B688C420DD11360F3
:10741000300000F03BF8200007220B30231D904382
:10742000C31AE7D05A42E250E4E763600C00EFE78A
:107430000C004968C3E70323C41C9C43A042E1D06D
:10744000211A300000F008F8431CDBD1C7E7C04622
:10745000D0070020D4070020002370B5064C05009B
:107460000800236000F014F8431C03D12368002BAC
:1074700000D02B6070BDC046DC0700200023C25C3A
:107480000133002AFBD1581E704770477047000037
:10749000044A1368002B00D1034B18181060180021
:1074A0007047C046D8070020E0070020F8B5C04666
:1074B000F8BC08BC9E467047F8B5C046F8BC08BC8E
:1074C0009E4670477622000094220000A42200000D
:1074D000B4220000C02200000000000016000000DE
:1074E000080000001C000000FF000004000406006B
:1074F0000000000017000000080000001C00000051
:10750000FF00010401040700000000000A00000061
:10751000080000001C000000120000010001FF0034
:10752000000000000B000000080000001C0000002C
:10753000130001010101FF00010000000A0000002A
:10754000080000001C000000FF00000500050A0004
:10755000010000000B000000080000001C000000FB
:10756000FF00010501050B000000000014000000F1
:10757000080000002C000000FF00020002000400D0
:107580000000000015000000080000002C000000B2
:10759000FF000300030005000000000010000000D1
:1075A000020000001C000000FF00000200020000BA
:1075B00000000000110000000200000004000000B4
:1075C000FF00FFFFFFFF01000000000013000000AC
:1075D000020000001C000000FF0001030103FF0087
:1075E0000000000008000000030000001C00000074
:1075F0001000000000001000000000000900000062
:1076000003000000040000001100FFFFFFFFFF0067
:10761000010000001700000003000000040000004B
:10762000FF00FFFFFFFFFF00010000001600000049
:107630000300000004000000FF00FFFFFFFFFF0049
:107640000000000002000000010000000600000031
:107650000000FFFFFFFFFF0001000000020000002C
:1076600001000000040000000A00FFFFFFFF02000D
:107670000100000003000000010000000400000001
:107680000B00FFFFFFFF03000000000004000000EC
:10769000010000001C000000040000000000FF00CA
:1076A0000000000005000000010000001C000000B8
:1076B000050001000100FF000000000006000000BE
:1076C00001000000040000000600FFFFFFFFFF00B4
:1076D000000000000700000001000000040000009E
:1076E0000700FFFFFFFFFF00000000001800000080
:1076F0000600000000000000FF00FFFFFFFFFF008A
:10770000000000001900000006000000000000005A
:10771000FF00FFFFFFFFFF0000000000120000005D
:107720000800000004000000FF00FFFFFFFFFF0053
:10773000000000000300000008000000040000003A
:10774000FF00FFFFFFFFFF00000000000C00000033
:107750000300000000000000FF00FFFFFFFFFF002C
:10776000000000000D000000030000000000000009
:10777000FF00FFFFFFFFFF00000000000E00000001
:107780000800000000000000FF00FFFFFFFFFF00F7
:10779000000000000F0000000300000000000000D7
:1077A000FF00FFFFFFFFFF00000000001B000000C4
:1077B0000800000000000000FF00FFFFFFFFFF00C7
:1077C000000000001C000000080000000000000095
:1077D000FF00FFFFFFFFFF000100000008000000A6
:1077E0000800000000000000FF00FFFFFFFFFF0097
:1077F0000100000009000000080000000000000077
:10780000FF00FFFFFFFF0900000000000000000074
:107810000800000000000000FF00FFFFFFFFFF0066
:10782000000000000100000008000000000000004F
:10783000FF00FFFFFFFFFF00522B0000E82A0000BF
:10784000042B0000202B0000362B0000E82A00004B
:10785000F4310000FE2F0000FE2F0000FE2F00007C
:10786000FE2F0000FE2F0000FE2F0000FE2F000064
:10787000FE2F0000B42F0000B42F0000B42F000032
:10788000B42F000000000000000000002D3F0000A9
:10789000F5420000A13E00004F3D0000853E000083
:1078A000D93E0000BD3E0000513B0000793B000086
:1078B000213D0000233A000000000000000000000D
:1078C000EF420000F5420000F5380000EF420000F2
:1078D000EF420000EF420000EF420000EF420000E4
:1078E000EF420000EF420000EF4200000000000005
:1078F00000000000EF420000F5420000F5380000F3
:1079000007390000EF420000EF420000EF420000A4
:107910000000000000000000EF420000F5420000FF
:10792000F53800000739000004030904417264754A
:10793000696E6F204D4B52313030300041726475AA
:10794000696E6F204C4C430012010002EF020140AF
:1079500041234E80000101020301000012010002D8
:107960000000004041234E8000010102030100009D
:10797000C66300001C6400004265000068640000EB
:1079800042650000AA640000BE640000CE640000EE
:10799000D2640000E26400001A6500002A6500005D
:1079A00000000000000000008F5300002352000080
:1079B000FB5400001F550000554F0000714F0000A0
:1079C000B15200000000000000000000EF42000083
:1079D000EF420000EF420000EF4200000000000014
:1079E00000000000E3700000A1700000C96F0000FB
:1079F0005D700000916F000019700000DD6F0000E5
:107A00007F700000A16A00009D6C0000A16D000065
:107A1000196D0000F0FFFFFF00000000C56E0000C0
:107A20008D6C0000B16C00007D6D00000000000056
:107A300000000000EF420000EF420000EF420000B3
:087A4000516A00000000000083
:107A480080B500AF72B6184B0433184A934225D953
:107A5800FBF7ECFB03001A0001235340DBB2002BB9
:107A680000D0F5E7124B1B8B9BB211492022FF3245
:107A780013439BB20B830C4B04339A080C4B5200F4
:107A8800DA610B4B0B4A1A80FBF7D0FB03001A0094
:107A980001235340DBB2002B02D0F5E7C04600E0DB
:107AA800C046FBF7B3FBFEE700200000030200001E
:087AB8000040004102A5FFFFA0
:107AC0000A0B00000302000040420F00FFFFFFFF0F
:107AD00000C2010000000800FFFFFFFFFFFFFFFFE3
